{
  "address": "0xa7e44aE03307de5192944520251e95e89A56A953",
  "abi": [
    {
      "inputs": [
        {
          "internalType": "contract ISwapRouter",
          "name": "_swapRouter",
          "type": "address"
        },
        {
          "internalType": "address",
          "name": "_feeTo",
          "type": "address"
        },
        {
          "internalType": "uint256",
          "name": "_feeRate",
          "type": "uint256"
        }
      ],
      "stateMutability": "nonpayable",
      "type": "constructor"
    },
    {
      "anonymous": false,
      "inputs": [
        {
          "indexed": true,
          "internalType": "address",
          "name": "previousOwner",
          "type": "address"
        },
        {
          "indexed": true,
          "internalType": "address",
          "name": "newOwner",
          "type": "address"
        }
      ],
      "name": "OwnershipTransferred",
      "type": "event"
    },
    {
      "anonymous": false,
      "inputs": [
        {
          "indexed": true,
          "internalType": "address",
          "name": "maker",
          "type": "address"
        },
        {
          "indexed": false,
          "internalType": "bytes32",
          "name": "salt",
          "type": "bytes32"
        },
        {
          "indexed": false,
          "internalType": "enum CoinmapDex.OrderStatus",
          "name": "status",
          "type": "uint8"
        }
      ],
      "name": "UpdateStatus",
      "type": "event"
    },
    {
      "inputs": [],
      "name": "ORDER_TYPEHASH",
      "outputs": [
        {
          "internalType": "bytes32",
          "name": "",
          "type": "bytes32"
        }
      ],
      "stateMutability": "view",
      "type": "function"
    },
    {
      "inputs": [
        {
          "internalType": "address",
          "name": "maker",
          "type": "address"
        },
        {
          "internalType": "bytes32",
          "name": "salt",
          "type": "bytes32"
        }
      ],
      "name": "cancelOrder",
      "outputs": [],
      "stateMutability": "nonpayable",
      "type": "function"
    },
    {
      "inputs": [
        {
          "internalType": "address",
          "name": "signer",
          "type": "address"
        },
        {
          "components": [
            {
              "internalType": "address",
              "name": "maker",
              "type": "address"
            },
            {
              "internalType": "address",
              "name": "payToken",
              "type": "address"
            },
            {
              "internalType": "address",
              "name": "buyToken",
              "type": "address"
            },
            {
              "internalType": "uint256",
              "name": "payAmount",
              "type": "uint256"
            },
            {
              "internalType": "uint256",
              "name": "buyAmount",
              "type": "uint256"
            },
            {
              "internalType": "uint256",
              "name": "deadline",
              "type": "uint256"
            },
            {
              "internalType": "bytes32",
              "name": "salt",
              "type": "bytes32"
            }
          ],
          "internalType": "struct CoinmapDex.Order",
          "name": "order",
          "type": "tuple"
        },
        {
          "internalType": "bytes",
          "name": "signature",
          "type": "bytes"
        },
        {
          "internalType": "address[]",
          "name": "paths",
          "type": "address[]"
        },
        {
          "internalType": "address[]",
          "name": "feePaths",
          "type": "address[]"
        }
      ],
      "name": "executeOrder",
      "outputs": [],
      "stateMutability": "nonpayable",
      "type": "function"
    },
    {
      "inputs": [],
      "name": "feeRate",
      "outputs": [
        {
          "internalType": "uint256",
          "name": "",
          "type": "uint256"
        }
      ],
      "stateMutability": "view",
      "type": "function"
    },
    {
      "inputs": [],
      "name": "feeTo",
      "outputs": [
        {
          "internalType": "address",
          "name": "",
          "type": "address"
        }
      ],
      "stateMutability": "view",
      "type": "function"
    },
    {
      "inputs": [
        {
          "components": [
            {
              "internalType": "address",
              "name": "maker",
              "type": "address"
            },
            {
              "internalType": "address",
              "name": "payToken",
              "type": "address"
            },
            {
              "internalType": "address",
              "name": "buyToken",
              "type": "address"
            },
            {
              "internalType": "uint256",
              "name": "payAmount",
              "type": "uint256"
            },
            {
              "internalType": "uint256",
              "name": "buyAmount",
              "type": "uint256"
            },
            {
              "internalType": "uint256",
              "name": "deadline",
              "type": "uint256"
            },
            {
              "internalType": "bytes32",
              "name": "salt",
              "type": "bytes32"
            }
          ],
          "internalType": "struct CoinmapDex.Order",
          "name": "order",
          "type": "tuple"
        }
      ],
      "name": "hashOrder",
      "outputs": [
        {
          "internalType": "bytes32",
          "name": "",
          "type": "bytes32"
        }
      ],
      "stateMutability": "pure",
      "type": "function"
    },
    {
      "inputs": [
        {
          "internalType": "address",
          "name": "maker",
          "type": "address"
        },
        {
          "internalType": "address",
          "name": "signer",
          "type": "address"
        }
      ],
      "name": "isValidSigner",
      "outputs": [
        {
          "internalType": "bool",
          "name": "",
          "type": "bool"
        }
      ],
      "stateMutability": "pure",
      "type": "function"
    },
    {
      "inputs": [
        {
          "internalType": "address",
          "name": "",
          "type": "address"
        },
        {
          "internalType": "bytes32",
          "name": "",
          "type": "bytes32"
        }
      ],
      "name": "makerSaltUsed",
      "outputs": [
        {
          "internalType": "bool",
          "name": "",
          "type": "bool"
        }
      ],
      "stateMutability": "view",
      "type": "function"
    },
    {
      "inputs": [
        {
          "internalType": "address",
          "name": "_feeTo",
          "type": "address"
        }
      ],
      "name": "onCriticalBug",
      "outputs": [],
      "stateMutability": "nonpayable",
      "type": "function"
    },
    {
      "inputs": [],
      "name": "owner",
      "outputs": [
        {
          "internalType": "address",
          "name": "",
          "type": "address"
        }
      ],
      "stateMutability": "view",
      "type": "function"
    },
    {
      "inputs": [],
      "name": "renounceOwnership",
      "outputs": [],
      "stateMutability": "nonpayable",
      "type": "function"
    },
    {
      "inputs": [
        {
          "internalType": "uint256",
          "name": "_feeRate",
          "type": "uint256"
        }
      ],
      "name": "setFeeRate",
      "outputs": [],
      "stateMutability": "nonpayable",
      "type": "function"
    },
    {
      "inputs": [
        {
          "internalType": "address",
          "name": "_feeTo",
          "type": "address"
        }
      ],
      "name": "setFeeTo",
      "outputs": [],
      "stateMutability": "nonpayable",
      "type": "function"
    },
    {
      "inputs": [],
      "name": "swapRouter",
      "outputs": [
        {
          "internalType": "contract ISwapRouter",
          "name": "",
          "type": "address"
        }
      ],
      "stateMutability": "view",
      "type": "function"
    },
    {
      "inputs": [
        {
          "internalType": "address",
          "name": "newOwner",
          "type": "address"
        }
      ],
      "name": "transferOwnership",
      "outputs": [],
      "stateMutability": "nonpayable",
      "type": "function"
    },
    {
      "inputs": [
        {
          "internalType": "address",
          "name": "signer",
          "type": "address"
        },
        {
          "components": [
            {
              "internalType": "address",
              "name": "maker",
              "type": "address"
            },
            {
              "internalType": "address",
              "name": "payToken",
              "type": "address"
            },
            {
              "internalType": "address",
              "name": "buyToken",
              "type": "address"
            },
            {
              "internalType": "uint256",
              "name": "payAmount",
              "type": "uint256"
            },
            {
              "internalType": "uint256",
              "name": "buyAmount",
              "type": "uint256"
            },
            {
              "internalType": "uint256",
              "name": "deadline",
              "type": "uint256"
            },
            {
              "internalType": "bytes32",
              "name": "salt",
              "type": "bytes32"
            }
          ],
          "internalType": "struct CoinmapDex.Order",
          "name": "order",
          "type": "tuple"
        },
        {
          "internalType": "bytes",
          "name": "signature",
          "type": "bytes"
        }
      ],
      "name": "verify",
      "outputs": [
        {
          "internalType": "bool",
          "name": "",
          "type": "bool"
        }
      ],
      "stateMutability": "view",
      "type": "function"
    }
  ],
  "transactionHash": "0x0bb7e2ad31dbc3e6d1df2b998bd7cab61baae25efffe50578fb7dbb8fab71199",
  "args": [
    "0x10ED43C718714eb63d5aA57B78B54704E256024E",
    "0x974C026Cc5D9F69926a59181B6BDa1b090ff49fC",
    25
  ],
  "solcInputHash": "6fb0eed684fed940a36a814aff03af37",
  "bytecode": "0x6101206040523480156200001257600080fd5b5060405162001e4a38038062001e4a83398101604081905262000035916200019c565b604080518082018252600a815269086ded2dcdac2e088caf60b31b60208083019182528351808501855260018152603160f81b908201529151902060c08181527fc89efdaa54c0f20c7adf612882df0950f5a951637e0307cdcb4c672f298b8bc660e08190524660a081815286517f8b73c3c69bb8fe3d512ecc4cf759cc79239f7b179b0ffacaa9a75d522b39400f818801819052818901969096526060810193909352608080840192909252308382015286518084039091018152919092019094528351939092019290922090526101005262000113336200014c565b600180546001600160a01b039485166001600160a01b0319918216179091556002805493909416921691909117909155600355620001fc565b600080546001600160a01b038381166001600160a01b0319831681178455604051919092169283917f8be0079c531659141344cd1fd0a4f28419497f9722a3daafe3b4186f6b6457e09190a35050565b600080600060608486031215620001b1578283fd5b8351620001be81620001e3565b6020850151909350620001d181620001e3565b80925050604084015190509250925092565b6001600160a01b0381168114620001f957600080fd5b50565b60805160a05160c05160e05161010051611c09620002416000396000610ff9015260006110480152600061102301526000610fa701526000610fd00152611c096000f3fe608060405234801561001057600080fd5b50600436106101005760003560e01c8063978bbdb911610097578063e4c1141811610066578063e4c1141814610236578063f2fde38b14610249578063f46901ed1461025c578063f973a2091461026f57600080fd5b8063978bbdb9146101cb578063adaef2d9146101e2578063b1d34b7314610210578063c31c9c071461022357600080fd5b80636f71fd32116100d35780636f71fd321461018c578063715018a61461019f57806384b2167c146101a75780638da5cb5b146101ba57600080fd5b8063017e7e5814610105578063158e9e851461013557806342e6e29a1461014a57806345596e2e14610179575b600080fd5b600254610118906001600160a01b031681565b6040516001600160a01b0390911681526020015b60405180910390f35b61014861014336600461172e565b610295565b005b610169610158366004611748565b6001600160a01b0391821691161490565b604051901515815260200161012c565b61014861018736600461197b565b6102d5565b61014861019a366004611802565b610304565b610148610a28565b6101486101b536600461177a565b610a5e565b6000546001600160a01b0316610118565b6101d460035481565b60405190815260200161012c565b6101696101f036600461177a565b600460209081526000928352604080842090915290825290205460ff1681565b6101d461021e366004611960565b610b69565b600154610118906001600160a01b031681565b6101696102443660046117a3565b610c19565b61014861025736600461172e565b610c58565b61014861026a36600461172e565b610cf3565b6101d47ede0ef3ff623a8dac775d5c19cf58827378e2e8d3cf04efbc871b4568b32f7681565b6000546001600160a01b031633146102c85760405162461bcd60e51b81526004016102bf90611a57565b60405180910390fd5b806001600160a01b038116ff5b6000546001600160a01b031633146102ff5760405162461bcd60e51b81526004016102bf90611a57565b600355565b83516001600160a01b0316600090815260046020908152604080832060c0880151845290915290205460ff16156103665760405162461bcd60e51b8152602060048201526006602482015265434d4430303160d01b60448201526064016102bf565b83516001600160a01b038087169116146103ab5760405162461bcd60e51b815260206004820152600660248201526521a6a218181960d11b60448201526064016102bf565b6103b6858585610c19565b6103eb5760405162461bcd60e51b8152602060048201526006602482015265434d4430303360d01b60448201526064016102bf565b83602001516001600160a01b03168260008151811061041a57634e487b7160e01b600052603260045260246000fd5b60200260200101516001600160a01b0316146104615760405162461bcd60e51b815260206004820152600660248201526510d3510c0c0d60d21b60448201526064016102bf565b83604001516001600160a01b0316826001845161047e9190611b8d565b8151811061049c57634e487b7160e01b600052603260045260246000fd5b60200260200101516001600160a01b0316146104e35760405162461bcd60e51b8152602060048201526006602482015265434d4430303560d01b60448201526064016102bf565b60015460808501516040516307c0329d60e21b81526000926001600160a01b031691631f00ca749161051a91908790600401611a8c565b60006040518083038186803b15801561053257600080fd5b505afa158015610546573d6000803e3d6000fd5b505050506040513d6000823e601f3d908101601f1916820160405261056e91908101906118ad565b60008151811061058e57634e487b7160e01b600052603260045260246000fd5b6020026020010151905060006105bb6127106105b560035485610d3f90919063ffffffff16565b90610d4b565b60608701519091506105cd8383610d57565b11156106045760405162461bcd60e51b815260206004820152600660248201526521a6a218181b60d11b60448201526064016102bf565b855161065790306106158585610d57565b8760008151811061063657634e487b7160e01b600052603260045260246000fd5b60200260200101516001600160a01b0316610d63909392919063ffffffff16565b8360008151811061067857634e487b7160e01b600052603260045260246000fd5b60209081029190910101516001546001600160a01b039182169163095ea7b391166106a38585610d57565b6040516001600160e01b031960e085901b1681526001600160a01b0390921660048301526024820152604401602060405180830381600087803b1580156106e957600080fd5b505af11580156106fd573d6000803e3d6000fd5b505050506040513d601f19601f820116820180604052508101906107219190611940565b5060015460808701516060880151885160a08a0151604051634401edf760e11b81526000956001600160a01b031694638803dbee9461076a94919390928c929190600401611aa5565b600060405180830381600087803b15801561078457600080fd5b505af1158015610798573d6000803e3d6000fd5b505050506040513d6000823e601f3d908101601f191682016040526107c091908101906118ad565b9050866080015181600183516107d69190611b8d565b815181106107f457634e487b7160e01b600052603260045260246000fd5b602002602001015110156108335760405162461bcd60e51b8152602060048201526006602482015265434d4430303760d01b60448201526064016102bf565b60018451111561094f5786602001516001600160a01b03168460008151811061086c57634e487b7160e01b600052603260045260246000fd5b60200260200101516001600160a01b0316146108b35760405162461bcd60e51b81526020600482015260066024820152650869a886060760d31b60448201526064016102bf565b60015460025460a08901516040516338ed173960e01b81526001600160a01b03938416936338ed1739936108f39388936000938c93169190600401611aa5565b600060405180830381600087803b15801561090d57600080fd5b505af1158015610921573d6000803e3d6000fd5b505050506040513d6000823e601f3d908101601f1916820160405261094991908101906118ad565b506109a3565b60025485516109a3916001600160a01b0316908490889060009061098357634e487b7160e01b600052603260045260246000fd5b60200260200101516001600160a01b0316610dd49092919063ffffffff16565b86516001600160a01b03908116600090815260046020908152604080832060c08c0180518552925291829020805460ff191660019081179091558a519151925191909316927fed7cb6c9f6327abadac804e7b7c0033ad1ed0f4e1b259ff20ee6499ea527ab1492610a16929091906119f2565b60405180910390a25050505050505050565b6000546001600160a01b03163314610a525760405162461bcd60e51b81526004016102bf90611a57565b610a5c6000610e09565b565b6001600160a01b038216600090815260046020908152604080832084845290915290205460ff1615610abb5760405162461bcd60e51b8152602060048201526006602482015265434d4430303160d01b60448201526064016102bf565b6001600160a01b0382163314610afc5760405162461bcd60e51b815260206004820152600660248201526521a6a218181960d11b60448201526064016102bf565b6001600160a01b038216600081815260046020908152604080832085845290915290819020805460ff19166001179055517fed7cb6c9f6327abadac804e7b7c0033ad1ed0f4e1b259ff20ee6499ea527ab1490610b5d9084906002906119f2565b60405180910390a25050565b60007ede0ef3ff623a8dac775d5c19cf58827378e2e8d3cf04efbc871b4568b32f7682604051602001610bfc92919060006101008201905083825260018060a01b038084511660208401528060208501511660408401528060408501511660608401525060608301516080830152608083015160a083015260a083015160c083015260c083015160e08301529392505050565b604051602081830303815290604052805190602001209050919050565b600080610c2d610c2885610b69565b610e59565b9050610c398184610ead565b6001600160a01b0316856001600160a01b0316149150505b9392505050565b6000546001600160a01b03163314610c825760405162461bcd60e51b81526004016102bf90611a57565b6001600160a01b038116610ce75760405162461bcd60e51b815260206004820152602660248201527f4f776e61626c653a206e6577206f776e657220697320746865207a65726f206160448201526564647265737360d01b60648201526084016102bf565b610cf081610e09565b50565b6000546001600160a01b03163314610d1d5760405162461bcd60e51b81526004016102bf90611a57565b600280546001600160a01b0319166001600160a01b0392909216919091179055565b6000610c518284611b6e565b6000610c518284611b4e565b6000610c518284611b36565b6040516001600160a01b0380851660248301528316604482015260648101829052610dce9085906323b872dd60e01b906084015b60408051601f198184030181529190526020810180516001600160e01b03166001600160e01b031990931692909217909152610ed1565b50505050565b6040516001600160a01b038316602482015260448101829052610e0490849063a9059cbb60e01b90606401610d97565b505050565b600080546001600160a01b038381166001600160a01b0319831681178455604051919092169283917f8be0079c531659141344cd1fd0a4f28419497f9722a3daafe3b4186f6b6457e09190a35050565b6000610ea7610e66610fa3565b8360405161190160f01b6020820152602281018390526042810182905260009060620160405160208183030381529060405280519060200120905092915050565b92915050565b6000806000610ebc8585611096565b91509150610ec981611106565b509392505050565b6000610f26826040518060400160405280602081526020017f5361666545524332303a206c6f772d6c6576656c2063616c6c206661696c6564815250856001600160a01b03166113079092919063ffffffff16565b805190915015610e045780806020019051810190610f449190611940565b610e045760405162461bcd60e51b815260206004820152602a60248201527f5361666545524332303a204552433230206f7065726174696f6e20646964206e6044820152691bdd081cdd58d8d9595960b21b60648201526084016102bf565b60007f0000000000000000000000000000000000000000000000000000000000000000461415610ff257507f000000000000000000000000000000000000000000000000000000000000000090565b50604080517f00000000000000000000000000000000000000000000000000000000000000006020808301919091527f0000000000000000000000000000000000000000000000000000000000000000828401527f000000000000000000000000000000000000000000000000000000000000000060608301524660808301523060a0808401919091528351808403909101815260c0909201909252805191012090565b6000808251604114156110cd5760208301516040840151606085015160001a6110c18782858561131e565b945094505050506110ff565b8251604014156110f757602083015160408401516110ec86838361140b565b9350935050506110ff565b506000905060025b9250929050565b600081600481111561112857634e487b7160e01b600052602160045260246000fd5b14156111315750565b600181600481111561115357634e487b7160e01b600052602160045260246000fd5b14156111a15760405162461bcd60e51b815260206004820152601860248201527f45434453413a20696e76616c6964207369676e6174757265000000000000000060448201526064016102bf565b60028160048111156111c357634e487b7160e01b600052602160045260246000fd5b14156112115760405162461bcd60e51b815260206004820152601f60248201527f45434453413a20696e76616c6964207369676e6174757265206c656e6774680060448201526064016102bf565b600381600481111561123357634e487b7160e01b600052602160045260246000fd5b141561128c5760405162461bcd60e51b815260206004820152602260248201527f45434453413a20696e76616c6964207369676e6174757265202773272076616c604482015261756560f01b60648201526084016102bf565b60048160048111156112ae57634e487b7160e01b600052602160045260246000fd5b1415610cf05760405162461bcd60e51b815260206004820152602260248201527f45434453413a20696e76616c6964207369676e6174757265202776272076616c604482015261756560f01b60648201526084016102bf565b6060611316848460008561143a565b949350505050565b6000807f7fffffffffffffffffffffffffffffff5d576e7357a4501ddfe92f46681b20a08311156113555750600090506003611402565b8460ff16601b1415801561136d57508460ff16601c14155b1561137e5750600090506004611402565b6040805160008082526020820180845289905260ff881692820192909252606081018690526080810185905260019060a0016020604051602081039080840390855afa1580156113d2573d6000803e3d6000fd5b5050604051601f1901519150506001600160a01b0381166113fb57600060019250925050611402565b9150600090505b94509492505050565b6000806001600160ff1b03831660ff84901c601b0161142c8782888561131e565b935093505050935093915050565b60608247101561149b5760405162461bcd60e51b815260206004820152602660248201527f416464726573733a20696e73756666696369656e742062616c616e636520666f6044820152651c8818d85b1b60d21b60648201526084016102bf565b843b6114e95760405162461bcd60e51b815260206004820152601d60248201527f416464726573733a2063616c6c20746f206e6f6e2d636f6e747261637400000060448201526064016102bf565b600080866001600160a01b0316858760405161150591906119d6565b60006040518083038185875af1925050503d8060008114611542576040519150601f19603f3d011682016040523d82523d6000602084013e611547565b606091505b5091509150611557828286611562565b979650505050505050565b60608315611571575081610c51565b8251156115815782518084602001fd5b8160405162461bcd60e51b81526004016102bf9190611a24565b80356001600160a01b03811681146115b257600080fd5b919050565b600082601f8301126115c7578081fd5b813560206115dc6115d783611b12565b611ae1565b80838252828201915082860187848660051b89010111156115fb578586fd5b855b858110156116205761160e8261159b565b845292840192908401906001016115fd565b5090979650505050505050565b600082601f83011261163d578081fd5b813567ffffffffffffffff81111561165757611657611be6565b61166a601f8201601f1916602001611ae1565b81815284602083860101111561167e578283fd5b816020850160208301379081016020019190915292915050565b600060e082840312156116a9578081fd5b60405160e0810181811067ffffffffffffffff821117156116cc576116cc611be6565b6040529050806116db8361159b565b81526116e96020840161159b565b60208201526116fa6040840161159b565b6040820152606083013560608201526080830135608082015260a083013560a082015260c083013560c08201525092915050565b60006020828403121561173f578081fd5b610c518261159b565b6000806040838503121561175a578081fd5b6117638361159b565b91506117716020840161159b565b90509250929050565b6000806040838503121561178c578182fd5b6117958361159b565b946020939093013593505050565b600080600061012084860312156117b8578081fd5b6117c18461159b565b92506117d08560208601611698565b915061010084013567ffffffffffffffff8111156117ec578182fd5b6117f88682870161162d565b9150509250925092565b6000806000806000610160868803121561181a578081fd5b6118238661159b565b94506118328760208801611698565b935061010086013567ffffffffffffffff8082111561184f578283fd5b61185b89838a0161162d565b9450610120880135915080821115611871578283fd5b61187d89838a016115b7565b9350610140880135915080821115611893578283fd5b506118a0888289016115b7565b9150509295509295909350565b600060208083850312156118bf578182fd5b825167ffffffffffffffff8111156118d5578283fd5b8301601f810185136118e5578283fd5b80516118f36115d782611b12565b80828252848201915084840188868560051b8701011115611912578687fd5b8694505b83851015611934578051835260019490940193918501918501611916565b50979650505050505050565b600060208284031215611951578081fd5b81518015158114610c51578182fd5b600060e08284031215611971578081fd5b610c518383611698565b60006020828403121561198c578081fd5b5035919050565b6000815180845260208085019450808401835b838110156119cb5781516001600160a01b0316875295820195908201906001016119a6565b509495945050505050565b600082516119e8818460208701611ba4565b9190910192915050565b8281526040810160038310611a1757634e487b7160e01b600052602160045260246000fd5b8260208301529392505050565b6020815260008251806020840152611a43816040850160208701611ba4565b601f01601f19169190910160400192915050565b6020808252818101527f4f776e61626c653a2063616c6c6572206973206e6f7420746865206f776e6572604082015260600190565b8281526040602082015260006113166040830184611993565b85815284602082015260a060408201526000611ac460a0830186611993565b6001600160a01b0394909416606083015250608001529392505050565b604051601f8201601f1916810167ffffffffffffffff81118282101715611b0a57611b0a611be6565b604052919050565b600067ffffffffffffffff821115611b2c57611b2c611be6565b5060051b60200190565b60008219821115611b4957611b49611bd0565b500190565b600082611b6957634e487b7160e01b81526012600452602481fd5b500490565b6000816000190483118215151615611b8857611b88611bd0565b500290565b600082821015611b9f57611b9f611bd0565b500390565b60005b83811015611bbf578181015183820152602001611ba7565b83811115610dce5750506000910152565b634e487b7160e01b600052601160045260246000fd5b634e487b7160e01b600052604160045260246000fdfea164736f6c6343000804000a",
  "devdoc": {
    "kind": "dev",
    "methods": {
      "constructor": {
        "params": {
          "_feeRate": ": fee rate (100 = 1%, 500 = 5%, 5 = 0.05%)",
          "_feeTo": ": address to collect fee",
          "_swapRouter": ": pancake router address"
        }
      },
      "owner()": {
        "details": "Returns the address of the current owner."
      },
      "renounceOwnership()": {
        "details": "Leaves the contract without owner. It will not be possible to call `onlyOwner` functions anymore. Can only be called by the current owner. NOTE: Renouncing ownership will leave the contract without an owner, thereby removing any functionality that is only available to the owner."
      },
      "transferOwnership(address)": {
        "details": "Transfers ownership of the contract to a new account (`newOwner`). Can only be called by the current owner."
      }
    },
    "version": 1
  },
  "userdoc": {
    "kind": "user",
    "methods": {
      "constructor": {
        "notice": "Constructor"
      }
    },
    "version": 1
  },
  "storageLayout": {
    "storage": [
      {
        "astId": 7,
        "contract": "contracts/CoinmapDex.sol:CoinmapDex",
        "label": "_owner",
        "offset": 0,
        "slot": "0",
        "type": "t_address"
      },
      {
        "astId": 1587,
        "contract": "contracts/CoinmapDex.sol:CoinmapDex",
        "label": "swapRouter",
        "offset": 0,
        "slot": "1",
        "type": "t_contract(ISwapRouter)2063"
      },
      {
        "astId": 1589,
        "contract": "contracts/CoinmapDex.sol:CoinmapDex",
        "label": "feeTo",
        "offset": 0,
        "slot": "2",
        "type": "t_address"
      },
      {
        "astId": 1591,
        "contract": "contracts/CoinmapDex.sol:CoinmapDex",
        "label": "feeRate",
        "offset": 0,
        "slot": "3",
        "type": "t_uint256"
      },
      {
        "astId": 1597,
        "contract": "contracts/CoinmapDex.sol:CoinmapDex",
        "label": "makerSaltUsed",
        "offset": 0,
        "slot": "4",
        "type": "t_mapping(t_address,t_mapping(t_bytes32,t_bool))"
      }
    ],
    "types": {
      "t_address": {
        "encoding": "inplace",
        "label": "address",
        "numberOfBytes": "20"
      },
      "t_bool": {
        "encoding": "inplace",
        "label": "bool",
        "numberOfBytes": "1"
      },
      "t_bytes32": {
        "encoding": "inplace",
        "label": "bytes32",
        "numberOfBytes": "32"
      },
      "t_contract(ISwapRouter)2063": {
        "encoding": "inplace",
        "label": "contract ISwapRouter",
        "numberOfBytes": "20"
      },
      "t_mapping(t_address,t_mapping(t_bytes32,t_bool))": {
        "encoding": "mapping",
        "key": "t_address",
        "label": "mapping(address => mapping(bytes32 => bool))",
        "numberOfBytes": "32",
        "value": "t_mapping(t_bytes32,t_bool)"
      },
      "t_mapping(t_bytes32,t_bool)": {
        "encoding": "mapping",
        "key": "t_bytes32",
        "label": "mapping(bytes32 => bool)",
        "numberOfBytes": "32",
        "value": "t_bool"
      },
      "t_uint256": {
        "encoding": "inplace",
        "label": "uint256",
        "numberOfBytes": "32"
      }
    }
  }
}