{
  "address": "0x8ce1780d7C15D747af0BFd8b61F8D11D08BD2A71",
  "abi": [
    {
      "inputs": [
        {
          "internalType": "contract ISwapRouter",
          "name": "_swapRouter",
          "type": "address"
        },
        {
          "internalType": "address",
          "name": "_feeTo",
          "type": "address"
        }
      ],
      "stateMutability": "nonpayable",
      "type": "constructor"
    },
    {
      "anonymous": false,
      "inputs": [
        {
          "indexed": true,
          "internalType": "address",
          "name": "maker",
          "type": "address"
        },
        {
          "indexed": false,
          "internalType": "bytes32",
          "name": "salt",
          "type": "bytes32"
        },
        {
          "indexed": false,
          "internalType": "enum CoinmapDex.OrderStatus",
          "name": "status",
          "type": "uint8"
        }
      ],
      "name": "UpdateStatus",
      "type": "event"
    },
    {
      "inputs": [],
      "name": "ORDER_TYPEHASH",
      "outputs": [
        {
          "internalType": "bytes32",
          "name": "",
          "type": "bytes32"
        }
      ],
      "stateMutability": "view",
      "type": "function"
    },
    {
      "inputs": [
        {
          "internalType": "address",
          "name": "maker",
          "type": "address"
        },
        {
          "internalType": "bytes32",
          "name": "salt",
          "type": "bytes32"
        }
      ],
      "name": "cancelOrder",
      "outputs": [],
      "stateMutability": "nonpayable",
      "type": "function"
    },
    {
      "inputs": [
        {
          "internalType": "address",
          "name": "signer",
          "type": "address"
        },
        {
          "components": [
            {
              "internalType": "address",
              "name": "maker",
              "type": "address"
            },
            {
              "internalType": "address",
              "name": "payToken",
              "type": "address"
            },
            {
              "internalType": "address",
              "name": "buyToken",
              "type": "address"
            },
            {
              "internalType": "uint256",
              "name": "payAmount",
              "type": "uint256"
            },
            {
              "internalType": "uint256",
              "name": "buyAmount",
              "type": "uint256"
            },
            {
              "internalType": "uint256",
              "name": "deadline",
              "type": "uint256"
            },
            {
              "internalType": "bytes32",
              "name": "salt",
              "type": "bytes32"
            }
          ],
          "internalType": "struct CoinmapDex.Order",
          "name": "order",
          "type": "tuple"
        },
        {
          "internalType": "bytes",
          "name": "signature",
          "type": "bytes"
        },
        {
          "internalType": "address[]",
          "name": "paths",
          "type": "address[]"
        }
      ],
      "name": "executeOrder",
      "outputs": [],
      "stateMutability": "nonpayable",
      "type": "function"
    },
    {
      "inputs": [],
      "name": "feeTo",
      "outputs": [
        {
          "internalType": "address",
          "name": "",
          "type": "address"
        }
      ],
      "stateMutability": "view",
      "type": "function"
    },
    {
      "inputs": [
        {
          "components": [
            {
              "internalType": "address",
              "name": "maker",
              "type": "address"
            },
            {
              "internalType": "address",
              "name": "payToken",
              "type": "address"
            },
            {
              "internalType": "address",
              "name": "buyToken",
              "type": "address"
            },
            {
              "internalType": "uint256",
              "name": "payAmount",
              "type": "uint256"
            },
            {
              "internalType": "uint256",
              "name": "buyAmount",
              "type": "uint256"
            },
            {
              "internalType": "uint256",
              "name": "deadline",
              "type": "uint256"
            },
            {
              "internalType": "bytes32",
              "name": "salt",
              "type": "bytes32"
            }
          ],
          "internalType": "struct CoinmapDex.Order",
          "name": "order",
          "type": "tuple"
        }
      ],
      "name": "hashOrder",
      "outputs": [
        {
          "internalType": "bytes32",
          "name": "",
          "type": "bytes32"
        }
      ],
      "stateMutability": "pure",
      "type": "function"
    },
    {
      "inputs": [
        {
          "internalType": "address",
          "name": "maker",
          "type": "address"
        },
        {
          "internalType": "address",
          "name": "signer",
          "type": "address"
        }
      ],
      "name": "isValidSigner",
      "outputs": [
        {
          "internalType": "bool",
          "name": "",
          "type": "bool"
        }
      ],
      "stateMutability": "pure",
      "type": "function"
    },
    {
      "inputs": [
        {
          "internalType": "address",
          "name": "",
          "type": "address"
        },
        {
          "internalType": "bytes32",
          "name": "",
          "type": "bytes32"
        }
      ],
      "name": "makerSaltUsed",
      "outputs": [
        {
          "internalType": "bool",
          "name": "",
          "type": "bool"
        }
      ],
      "stateMutability": "view",
      "type": "function"
    },
    {
      "inputs": [],
      "name": "swapRouter",
      "outputs": [
        {
          "internalType": "contract ISwapRouter",
          "name": "",
          "type": "address"
        }
      ],
      "stateMutability": "view",
      "type": "function"
    },
    {
      "inputs": [
        {
          "internalType": "address",
          "name": "signer",
          "type": "address"
        },
        {
          "components": [
            {
              "internalType": "address",
              "name": "maker",
              "type": "address"
            },
            {
              "internalType": "address",
              "name": "payToken",
              "type": "address"
            },
            {
              "internalType": "address",
              "name": "buyToken",
              "type": "address"
            },
            {
              "internalType": "uint256",
              "name": "payAmount",
              "type": "uint256"
            },
            {
              "internalType": "uint256",
              "name": "buyAmount",
              "type": "uint256"
            },
            {
              "internalType": "uint256",
              "name": "deadline",
              "type": "uint256"
            },
            {
              "internalType": "bytes32",
              "name": "salt",
              "type": "bytes32"
            }
          ],
          "internalType": "struct CoinmapDex.Order",
          "name": "order",
          "type": "tuple"
        },
        {
          "internalType": "bytes",
          "name": "signature",
          "type": "bytes"
        }
      ],
      "name": "verify",
      "outputs": [
        {
          "internalType": "bool",
          "name": "",
          "type": "bool"
        }
      ],
      "stateMutability": "view",
      "type": "function"
    }
  ],
  "transactionHash": "0xc13f17248c038cf6e520e184d23fe2423dc82e9004231145548bc80b58cb5ff8",
  "args": [
    "0x10ED43C718714eb63d5aA57B78B54704E256024E",
    "0x974C026Cc5D9F69926a59181B6BDa1b090ff49fC"
  ],
  "solcInputHash": "ee439651431493c7ec5f2c04d6a9cf4e",
  "bytecode": "0x61012060405234801561001157600080fd5b506040516116dc3803806116dc83398101604081905261003091610134565b604080518082018252600a815269086ded2dcdac2e088caf60b31b60208083019182528351808501855260018152603160f81b908201529151902060c08181527fc89efdaa54c0f20c7adf612882df0950f5a951637e0307cdcb4c672f298b8bc660e08190524660a081815286517f8b73c3c69bb8fe3d512ecc4cf759cc79239f7b179b0ffacaa9a75d522b39400f8188018190528189019690965260608101939093526080808401929092523083820152865180840390910181529190920190945283519390920192909220905261010052600080546001600160a01b039384166001600160a01b03199182161790915560028054929093169116179055610185565b60008060408385031215610146578182fd5b82516101518161016d565b60208401519092506101628161016d565b809150509250929050565b6001600160a01b038116811461018257600080fd5b50565b60805160a05160c05160e051610100516115136101c960003960006109ff01526000610a4e01526000610a29015260006109ad015260006109d601526115136000f3fe608060405234801561001057600080fd5b50600436106100935760003560e01c8063adaef2d911610066578063adaef2d91461011f578063b1d34b731461014d578063c31c9c071461016e578063e4c1141814610181578063f973a2091461019457600080fd5b8063017e7e581461009857806342e6e29a146100c85780634b2e1c07146100f757806384b2167c1461010c575b600080fd5b6002546100ab906001600160a01b031681565b6040516001600160a01b0390911681526020015b60405180910390f35b6100e76100d63660046110c1565b6001600160a01b0391821691161490565b60405190151581526020016100bf565b61010a61010536600461117b565b6101ba565b005b61010a61011a3660046110f3565b61067d565b6100e761012d3660046110f3565b600160209081526000928352604080842090915290825290205460ff1681565b61016061015b366004611318565b6106ff565b6040519081526020016100bf565b6000546100ab906001600160a01b031681565b6100e761018f36600461111c565b6107af565b6101607ede0ef3ff623a8dac775d5c19cf58827378e2e8d3cf04efbc871b4568b32f7681565b82516001600160a01b038086169116146101d357600080fd5b6101de8484846107af565b6101e757600080fd5b82602001516001600160a01b03168160008151811061021657634e487b7160e01b600052603260045260246000fd5b60200260200101516001600160a01b03161461023157600080fd5b82604001516001600160a01b0316816001835161024e91906114a1565b8151811061026c57634e487b7160e01b600052603260045260246000fd5b60200260200101516001600160a01b03161461028757600080fd5b6000805460808501516040516307c0329d60e21b81526001600160a01b0390921691631f00ca74916102bd9186906004016113f7565b60006040518083038186803b1580156102d557600080fd5b505afa1580156102e9573d6000803e3d6000fd5b505050506040513d6000823e601f3d908101601f191682016040526103119190810190611265565b60008151811061033157634e487b7160e01b600052603260045260246000fd5b60200260200101519050836060015181111561038d5760405162461bcd60e51b8152602060048201526016602482015275086eae4e4cadce840e0e4d2c6ca40e8dede40d0d2ced60531b60448201526064015b60405180910390fd5b6103d984600001513083856000815181106103b857634e487b7160e01b600052603260045260246000fd5b60200260200101516001600160a01b03166107ee909392919063ffffffff16565b816000815181106103fa57634e487b7160e01b600052603260045260246000fd5b602090810291909101015160005460405163095ea7b360e01b81526001600160a01b0391821660048201526024810184905291169063095ea7b390604401602060405180830381600087803b15801561045257600080fd5b505af1158015610466573d6000803e3d6000fd5b505050506040513d601f19601f8201168201806040525081019061048a91906112f8565b506000805460808601516060870151875160a0890151604051634401edf760e11b81526001600160a01b0390951694638803dbee946104d194909390928a92600401611410565b600060405180830381600087803b1580156104eb57600080fd5b505af11580156104ff573d6000803e3d6000fd5b505050506040513d6000823e601f3d908101601f191682016040526105279190810190611265565b90508460800151816001835161053d91906114a1565b8151811061055b57634e487b7160e01b600052603260045260246000fd5b602002602001015110156105bd5760405162461bcd60e51b8152602060048201526024808201527f5265636569766520616d6f756e74206973206c657373207468616e206578706560448201526318dd195960e21b6064820152608401610384565b8451600254606087015161060192916001600160a01b0316906105e0908661084e565b866000815181106103b857634e487b7160e01b600052603260045260246000fd5b84516001600160a01b03908116600090815260016020818152604080842060c08b0180518652925292839020805460ff1916831790558851905192519316927fed7cb6c9f6327abadac804e7b7c0033ad1ed0f4e1b259ff20ee6499ea527ab149261066d929091611392565b60405180910390a2505050505050565b6001600160a01b038216331461069257600080fd5b6001600160a01b038216600081815260016020818152604080842086855290915291829020805460ff19169091179055517fed7cb6c9f6327abadac804e7b7c0033ad1ed0f4e1b259ff20ee6499ea527ab14906106f3908490600290611392565b60405180910390a25050565b60007ede0ef3ff623a8dac775d5c19cf58827378e2e8d3cf04efbc871b4568b32f768260405160200161079292919060006101008201905083825260018060a01b038084511660208401528060208501511660408401528060408501511660608401525060608301516080830152608083015160a083015260a083015160c083015260c083015160e08301529392505050565b604051602081830303815290604052805190602001209050919050565b6000806107c36107be856106ff565b61085a565b90506107cf81846108ae565b6001600160a01b0316856001600160a01b0316149150505b9392505050565b604080516001600160a01b0385811660248301528416604482015260648082018490528251808303909101815260849091019091526020810180516001600160e01b03166323b872dd60e01b1790526108489085906108d2565b50505050565b60006107e782846114a1565b60006108a86108676109a9565b8360405161190160f01b6020820152602281018390526042810182905260009060620160405160208183030381529060405280519060200120905092915050565b92915050565b60008060006108bd8585610a9c565b915091506108ca81610b0c565b509392505050565b6000610927826040518060400160405280602081526020017f5361666545524332303a206c6f772d6c6576656c2063616c6c206661696c6564815250856001600160a01b0316610d109092919063ffffffff16565b8051909150156109a4578080602001905181019061094591906112f8565b6109a45760405162461bcd60e51b815260206004820152602a60248201527f5361666545524332303a204552433230206f7065726174696f6e20646964206e6044820152691bdd081cdd58d8d9595960b21b6064820152608401610384565b505050565b60007f00000000000000000000000000000000000000000000000000000000000000004614156109f857507f000000000000000000000000000000000000000000000000000000000000000090565b50604080517f00000000000000000000000000000000000000000000000000000000000000006020808301919091527f0000000000000000000000000000000000000000000000000000000000000000828401527f000000000000000000000000000000000000000000000000000000000000000060608301524660808301523060a0808401919091528351808403909101815260c0909201909252805191012090565b600080825160411415610ad35760208301516040840151606085015160001a610ac787828585610d27565b94509450505050610b05565b825160401415610afd5760208301516040840151610af2868383610e14565b935093505050610b05565b506000905060025b9250929050565b6000816004811115610b2e57634e487b7160e01b600052602160045260246000fd5b1415610b375750565b6001816004811115610b5957634e487b7160e01b600052602160045260246000fd5b1415610ba75760405162461bcd60e51b815260206004820152601860248201527f45434453413a20696e76616c6964207369676e617475726500000000000000006044820152606401610384565b6002816004811115610bc957634e487b7160e01b600052602160045260246000fd5b1415610c175760405162461bcd60e51b815260206004820152601f60248201527f45434453413a20696e76616c6964207369676e6174757265206c656e677468006044820152606401610384565b6003816004811115610c3957634e487b7160e01b600052602160045260246000fd5b1415610c925760405162461bcd60e51b815260206004820152602260248201527f45434453413a20696e76616c6964207369676e6174757265202773272076616c604482015261756560f01b6064820152608401610384565b6004816004811115610cb457634e487b7160e01b600052602160045260246000fd5b1415610d0d5760405162461bcd60e51b815260206004820152602260248201527f45434453413a20696e76616c6964207369676e6174757265202776272076616c604482015261756560f01b6064820152608401610384565b50565b6060610d1f8484600085610e43565b949350505050565b6000807f7fffffffffffffffffffffffffffffff5d576e7357a4501ddfe92f46681b20a0831115610d5e5750600090506003610e0b565b8460ff16601b14158015610d7657508460ff16601c14155b15610d875750600090506004610e0b565b6040805160008082526020820180845289905260ff881692820192909252606081018690526080810185905260019060a0016020604051602081039080840390855afa158015610ddb573d6000803e3d6000fd5b5050604051601f1901519150506001600160a01b038116610e0457600060019250925050610e0b565b9150600090505b94509492505050565b6000806001600160ff1b03831660ff84901c601b01610e3587828885610d27565b935093505050935093915050565b606082471015610ea45760405162461bcd60e51b815260206004820152602660248201527f416464726573733a20696e73756666696369656e742062616c616e636520666f6044820152651c8818d85b1b60d21b6064820152608401610384565b843b610ef25760405162461bcd60e51b815260206004820152601d60248201527f416464726573733a2063616c6c20746f206e6f6e2d636f6e74726163740000006044820152606401610384565b600080866001600160a01b03168587604051610f0e9190611376565b60006040518083038185875af1925050503d8060008114610f4b576040519150601f19603f3d011682016040523d82523d6000602084013e610f50565b606091505b5091509150610f60828286610f6b565b979650505050505050565b60608315610f7a5750816107e7565b825115610f8a5782518084602001fd5b8160405162461bcd60e51b815260040161038491906113c4565b80356001600160a01b0381168114610fbb57600080fd5b919050565b600082601f830112610fd0578081fd5b813567ffffffffffffffff811115610fea57610fea6114f0565b610ffd601f8201601f191660200161144c565b818152846020838601011115611011578283fd5b816020850160208301379081016020019190915292915050565b600060e0828403121561103c578081fd5b60405160e0810181811067ffffffffffffffff8211171561105f5761105f6114f0565b60405290508061106e83610fa4565b815261107c60208401610fa4565b602082015261108d60408401610fa4565b6040820152606083013560608201526080830135608082015260a083013560a082015260c083013560c08201525092915050565b600080604083850312156110d3578182fd5b6110dc83610fa4565b91506110ea60208401610fa4565b90509250929050565b60008060408385031215611105578182fd5b61110e83610fa4565b946020939093013593505050565b60008060006101208486031215611131578081fd5b61113a84610fa4565b9250611149856020860161102b565b915061010084013567ffffffffffffffff811115611165578182fd5b61117186828701610fc0565b9150509250925092565b6000806000806101408587031215611191578081fd5b61119a85610fa4565b935060206111aa8782880161102b565b935061010086013567ffffffffffffffff808211156111c7578384fd5b6111d389838a01610fc0565b94506101208801359150808211156111e9578384fd5b508601601f810188136111fa578283fd5b803561120d6112088261147d565b61144c565b8082825284820191508484018b868560051b870101111561122c578687fd5b8694505b838510156112555761124181610fa4565b835260019490940193918501918501611230565b50979a9699509497505050505050565b60006020808385031215611277578182fd5b825167ffffffffffffffff81111561128d578283fd5b8301601f8101851361129d578283fd5b80516112ab6112088261147d565b80828252848201915084840188868560051b87010111156112ca578687fd5b8694505b838510156112ec5780518352600194909401939185019185016112ce565b50979650505050505050565b600060208284031215611309578081fd5b815180151581146107e7578182fd5b600060e08284031215611329578081fd5b6107e7838361102b565b6000815180845260208085019450808401835b8381101561136b5781516001600160a01b031687529582019590820190600101611346565b509495945050505050565b600082516113888184602087016114c4565b9190910192915050565b82815260408101600383106113b757634e487b7160e01b600052602160045260246000fd5b8260208301529392505050565b60208152600082518060208401526113e38160408501602087016114c4565b601f01601f19169190910160400192915050565b828152604060208201526000610d1f6040830184611333565b85815284602082015260a06040820152600061142f60a0830186611333565b6001600160a01b0394909416606083015250608001529392505050565b604051601f8201601f1916810167ffffffffffffffff81118282101715611475576114756114f0565b604052919050565b600067ffffffffffffffff821115611497576114976114f0565b5060051b60200190565b6000828210156114bf57634e487b7160e01b81526011600452602481fd5b500390565b60005b838110156114df5781810151838201526020016114c7565b838111156108485750506000910152565b634e487b7160e01b600052604160045260246000fdfea164736f6c6343000804000a",
  "devdoc": {
    "kind": "dev",
    "methods": {},
    "version": 1
  },
  "userdoc": {
    "kind": "user",
    "methods": {},
    "version": 1
  },
  "storageLayout": {
    "storage": [
      {
        "astId": 1458,
        "contract": "contracts/CoinmapDex.sol:CoinmapDex",
        "label": "swapRouter",
        "offset": 0,
        "slot": "0",
        "type": "t_contract(ISwapRouter)1783"
      },
      {
        "astId": 1464,
        "contract": "contracts/CoinmapDex.sol:CoinmapDex",
        "label": "makerSaltUsed",
        "offset": 0,
        "slot": "1",
        "type": "t_mapping(t_address,t_mapping(t_bytes32,t_bool))"
      },
      {
        "astId": 1466,
        "contract": "contracts/CoinmapDex.sol:CoinmapDex",
        "label": "feeTo",
        "offset": 0,
        "slot": "2",
        "type": "t_address"
      }
    ],
    "types": {
      "t_address": {
        "encoding": "inplace",
        "label": "address",
        "numberOfBytes": "20"
      },
      "t_bool": {
        "encoding": "inplace",
        "label": "bool",
        "numberOfBytes": "1"
      },
      "t_bytes32": {
        "encoding": "inplace",
        "label": "bytes32",
        "numberOfBytes": "32"
      },
      "t_contract(ISwapRouter)1783": {
        "encoding": "inplace",
        "label": "contract ISwapRouter",
        "numberOfBytes": "20"
      },
      "t_mapping(t_address,t_mapping(t_bytes32,t_bool))": {
        "encoding": "mapping",
        "key": "t_address",
        "label": "mapping(address => mapping(bytes32 => bool))",
        "numberOfBytes": "32",
        "value": "t_mapping(t_bytes32,t_bool)"
      },
      "t_mapping(t_bytes32,t_bool)": {
        "encoding": "mapping",
        "key": "t_bytes32",
        "label": "mapping(bytes32 => bool)",
        "numberOfBytes": "32",
        "value": "t_bool"
      }
    }
  }
}